:0400000022C04DC00D
:10000400FDCFFCCFFBCFFACFF9CFF8CFF7CFF6CFA8
:10001400F5CFF4CFF3CFF2CFF1CFF0CFEFCFEECFD8
:10002400EDCF1027E80364000A000100001000016E
:100034001000010048656C6C6F0006006001380018
:100044000000F894EE27ECBBF1E0FBBFEBBFE5BF8B
:100054008DE0A2E0BB27ED938A95E9F780E094E078
:10006400A0E6ED930197E9F7EEE3F0E08591959131
:10007400009761F0A591B59105901590BF01F0012D
:1000840005900D920197E1F7FB01F0CFEFE5EDBF8D
:10009400E4E0EEBFC0E6D1E001C01895EF976197A8
:1000A40010E001E030E0E0E0EFBDE2E0EEBDE0E0D2
:1000B400EDBDECBDE7BDE6BDEBBDEABDE9BDE8BD08
:1000C400E9BFEBB7E064EBBFE2E0E5BFE0E4EABF21
:1000D400E0E0EBB9E8E0EAB9E6E8E0BDE0E0E0BD85
:1000E400E3E3E9B9A0EDB7E0C2D0A0E6B1E095D072
:1000F400B09902C0013009F00BC0E12FA1D0AE0FBE
:10010400BF1FECB5FDB5ED93FC931F5F9ED000E0DF
:10011400B09B02C0003009F002C001E096D0ECB5FB
:10012400FDB5E938A3E1FA0708F46EC0163008F407
:100134005EC030E0383210F53130F0F08BD0EA0F89
:10014400FB1FBF0187D0AE0FBF1FB6D0A881B981F6
:10015400A0D0DB01ED93FC937DD07ED0ADD035975C
:1001640028F078D079D0E1E0F0E004C073D074D006
:10017400E0E0F0E0ED93FC933F5FDCCF20E050E063
:1001840030E0383038F4E32FF0E0719668D02E2B4D
:100194003F5FF7CF30E0383038F4E32FF0E0799662
:1001A4005ED05E2B3F5FF7CF273E11F4583109F044
:1001B40002C0A5E51BC0233E11F45C3109F002C066
:1001C400A4E414C0283B11F4573409F002C0A0E59C
:1001D4000DC02D3B11F4523409F002C0A7E406C04F
:1001E4002D3A11F4523509F002C0A2E50FD010E007
:1001F40030E0383240F42ED02FD0E0E0F0E0ED9340
:10020400FC933F5FF6CF21D073CFFFCFAA935D9BC2
:10021400FECFE881ECB921960895BA93AA931A9374
:10022400A981BA81ED91A983BA831E2FE03019F018
:10023400A12FECDFF5CFAAE0E9DF1881239608951A
:10024400F0E0DE01EE0FFF1F0895E0E0F0E0FDBDF9
:10025400ECBD0895E32FF4CFAE0FBF1F0895DE0168
:10026400EE0FFF1FF9DFAC91E32F0BD0089510962A
:1002740039F080ED97E00197F1F7A8951197C9F748
:100284000895EE230E2EEA2F19F0EE0F0A94E9F7E3
:1002940008950024112490E1AA0FBB1F001C111C17
:1002A4000E1A1F0A18F40E0E1F1E01C0A1609A95A3
:1002B40099F7FD01D0010895ED91FC9111970895EE
:00000001FF
